:1000000000308A00682800004A08FB3E03181D28BB
:10001000053E20281030F8001D281D280830F80063
:100020001D281D280430F8001D281D280230F80066
:100030001D281D280130F8001D288A110A123C28AD
:100040000A108A100A1182070A280E281228162878
:100050001A280130C7004608470203186728C9015B
:100060004908093C031C6528C8014808043C031CD6
:1000700063284808CA0004280030C300831687019B
:1000800083127808870048084407840083134518C2
:1000900083170008CA0086000130CA004A30840075
:1000A00083130008031961280630F800F701F70BE5
:1000B0005728F80B56287B30F700F70B5D28800B8C
:1000C0005428C80A3528C90A3028C70A2B2808002E
:1000D000FF30C30083161F149F141F159F11831335
:1000E0001F30830503308312A0007530A1007630E5
:1000F000A2007530A3000330A400A5013630A6008D
:10010000A700A8004930A9004130AA003E30AB004A
:10011000AC00AD005D30AE00AF013E30B000B100CC
:10012000B2004130B300B401B630B500B600B7003C
:10013000BE30B8007730B900BA004130BB0077302C
:10014000BC00BD006B30BE005D30BF00C001C1000F
:100150006B30C20083160912831290010030F80040
:1001600092000030831692001F149F141F159F11D8
:1001700083121F10F03097059D050030831686000E
:1001800087008312C300C5012030C4001430C600AC
:100190002920C5012530C4001430C6002920C5011E
:1001A0002A30C4001430C6002920C5012F30C400F5
:1001B0001430C6002920C5013430C4001430C600F4
:1001C0002920C5013930C4001430C6002920C501DA
:0E01D0003E30C4001430C6002920C32863004E
:02400E003A3F37
:00000001FF
;PIC16F877
;CRC=67AF  CREATED="23-Mar-21 21:16"
