:1000000000308A00802800002108723A0319122863
:10001000133A03191D28033A03192828013A031932
:1000200033283E28831685010D3083128500831600
:1000300086018312220886003E288316850101303E
:1000400083128500831686018312220886003E28CB
:10005000831685010530831285008316860183127D
:10006000220886003E288316850109308312850008
:10007000831686018312220886003E280800210884
:10008000723A03194D28133A03195928033A0319F0
:100090006528013A031971287D28831685010E30E1
:1000A00083128500FF308316860083120608F8004D
:1000B0007D2883168501023083128500FF30831668
:1000C000860083120608F8007D2883168501063015
:1000D00083128500FF308316860083120608F8001D
:1000E0007D28831685010A3083128500FF30831630
:1000F000860083120608F8007D288A110A12A628B5
:1001000083161F149F141F159F1183131F3083051F
:100110000912831290010030F8009200003083161B
:1001200092001F149F141F159F1183121F10F0308F
:1001300097059D057230A1008930A200042061302E
:10014000A100A20104206330A1003F287808A0008C
:0E0150006130A1002008A2000420A328630053
:02400E003A3F37
:00000001FF
;PIC16F877
;CRC=A1CA  CREATED="23-Mar-21 16:56"
