:1000000000308A0018280000223084008313000882
:10001000031917280630F800F701F70B0D28F80B25
:100020000C287B30F700F70B1328800B0A280800F8
:1000300083161F149F141F159F1183131F308305F0
:100040000912831290010030F800920000308316EC
:1000500092001F149F141F159F1183121F10F03060
:1000600097059D05003083168600831286010130B6
:10007000A100A0012008073C031C47282108860096
:100080000310A10D6430A2000420A00A3A28803099
:10009000A100210886006430A2000420A0012008ED
:1000A000063C031C5C280310A10C21088600643068
:0C00B000A2000420A00A4F28372863009B
:02400E003A3F37
:00000001FF
;PIC16F877
;CRC=E09F  CREATED="17-Mar-21 13:11"
