:1000000000308A003B2800000A108A100A1182077B
:100010003F3406345B344F3466346D347D340734FA
:100020007F346F342408F801230203181A282308A8
:10003000F7002628F7010830A500A30DF70D2408C6
:1000400077020318F700F80DA50B1D2808002330D0
:1000500084008313000803193A280630F800F701DA
:10006000F70B3028F80B2F287B30F700F70B3628DA
:10007000800B2D280800A001A101A20183161F14E6
:100080009F141F159F1183131F30830509128312BC
:1000900090010030F80092000030831692001F1487
:1000A0009F141F159F1183121F10F03097059D0597
:1000B000FC30831685000030860083120510851001
:1000C0002208A3000A30A40012207708A00022080A
:1000D000A3000A30A40012207808A100851020088F
:1000E0000420A30086000530A300272085140510F6
:1000F00021080420A30086000530A3002720051452
:10010000051DAD280A30A3002720A20A2208643C5E
:100110000319A2012208A3000A30A40012207708C4
:10012000A0002208A3000A30A40012207808A10031
:10013000051DAD28851020080420A3008600053089
:10014000A30027208514051021080420A3008600A1
:0E0150000530A30027200514982860286300BE
:02400E003A3F37
:00000001FF
;PIC16F877
;CRC=7EB2  CREATED="18-Mar-21 19:04"
