:1000000000308A001A280000213084008313000881
:10001000031917280630F800F701F70B0D28F80B25
:100020000C287B30F700F70B1328800B0A288A1165
:100030000A1242280130A00083161F149F141F15B6
:100040009F1183131F308305091283129001003022
:10005000F80092000030831692001F149F141F15A1
:100060009F1183121F10F03097059D0501308316F4
:1000700085000030860083128601051C4B280F3056
:10008000A100042820088600A00A05184528200899
:0A0090000A3C0319A0013D2863009B
:02400E003A3F37
:00000001FF
;PIC16F877
;CRC=EC2B  CREATED="16-Mar-21 23:14"
